{
    "contractName": "Lock",
    "abi": [
        {
            "inputs": [
                {
                    "internalType": "uint256",
                    "name": "_unlockTime",
                    "type": "uint256"
                }
            ],
            "stateMutability": "payable",
            "type": "constructor"
        },
        {
            "anonymous": false,
            "inputs": [
                {
                    "indexed": false,
                    "internalType": "uint256",
                    "name": "amount",
                    "type": "uint256"
                },
                {
                    "indexed": false,
                    "internalType": "uint256",
                    "name": "when",
                    "type": "uint256"
                }
            ],
            "name": "Withdrawal",
            "type": "event"
        },
        {
            "inputs": [],
            "name": "owner",
            "outputs": [
                {
                    "internalType": "address payable",
                    "name": "",
                    "type": "address"
                }
            ],
            "stateMutability": "view",
            "type": "function"
        },
        {
            "inputs": [],
            "name": "unlockTime",
            "outputs": [
                {
                    "internalType": "uint256",
                    "name": "",
                    "type": "uint256"
                }
            ],
            "stateMutability": "view",
            "type": "function"
        },
        {
            "inputs": [],
            "name": "withdraw",
            "outputs": [],
            "stateMutability": "nonpayable",
            "type": "function"
        }
    ],
    "bytecode": "6080601f61028538819003918201601f19168301916001600160401b0383118484101760b75780849260209460405283398101031260b35751804210156062575f55600180546001600160a01b031916331790556040516101b990816100cc8239f35b60405162461bcd60e51b815260206004820152602360248201527f556e6c6f636b2074696d652073686f756c6420626520696e207468652066757460448201526275726560e81b6064820152608490fd5b5f80fd5b634e487b7160e01b5f52604160045260245ffdfe6080806040526004361015610012575f80fd5b5f3560e01c908163251c1aa31461016a575080633ccfd60b1461006957638da5cb5b1461003d575f80fd5b34610065575f366003190112610065576001546040516001600160a01b039091168152602090f35b5f80fd5b34610065575f366003190112610065575f54421061012c576001546001600160a01b0316338190036100f0575f808080937fbf2ed60bd5b5965d685680c01195c9514e4382e28e3a5a2d2d5244bf59411b936040478151908152426020820152a147908282156100e7575bf1156100dc57005b6040513d5f823e3d90fd5b506108fc6100d4565b60405162461bcd60e51b81526020600482015260146024820152732cb7ba9030b932b713ba103a34329037bbb732b960611b6044820152606490fd5b60405162461bcd60e51b8152602060048201526016602482015275165bdd4818d85b89dd081dda5d1a191c985dc81e595d60521b6044820152606490fd5b34610065575f366003190112610065576020905f548152f3fea2646970667358221220d0c5b5042e3064b1b472c75a18b78edda52fc6b5b55bb2e168bd957d7cc56ed864736f6c634300081c0033",
    "sourcePath": "d:/code/web3WorkSpace/web3Homework/L0/02SolidityDemo/contracts/Lock.sol",
    "compiler": {
        "name": "solc",
        "version": "0.8.28+commit.7893614a"
    },
    "functionHashes": {
        "owner()": "8da5cb5b",
        "unlockTime()": "251c1aa3",
        "withdraw()": "3ccfd60b"
    },
    "gasEstimates": {
        "creation": {
            "codeDepositCost": "88200",
            "executionCost": "infinite",
            "totalCost": "infinite"
        },
        "external": {
            "owner()": "2321",
            "unlockTime()": "2247",
            "withdraw()": "infinite"
        }
    }
}